{
  "contractName": "Crowdsale",
  "abi": [
    {
      "inputs": [
        {
          "internalType": "uint256",
          "name": "rate",
          "type": "uint256"
        },
        {
          "internalType": "address payable",
          "name": "wallet",
          "type": "address"
        },
        {
          "internalType": "contract IERC20",
          "name": "token",
          "type": "address"
        }
      ],
      "stateMutability": "nonpayable",
      "type": "constructor"
    },
    {
      "anonymous": false,
      "inputs": [
        {
          "indexed": true,
          "internalType": "address",
          "name": "purchaser",
          "type": "address"
        },
        {
          "indexed": true,
          "internalType": "address",
          "name": "beneficiary",
          "type": "address"
        },
        {
          "indexed": false,
          "internalType": "uint256",
          "name": "value",
          "type": "uint256"
        },
        {
          "indexed": false,
          "internalType": "uint256",
          "name": "amount",
          "type": "uint256"
        }
      ],
      "name": "TokensPurchased",
      "type": "event"
    },
    {
      "stateMutability": "payable",
      "type": "receive"
    },
    {
      "inputs": [],
      "name": "token",
      "outputs": [
        {
          "internalType": "contract IERC20",
          "name": "",
          "type": "address"
        }
      ],
      "stateMutability": "view",
      "type": "function"
    },
    {
      "inputs": [],
      "name": "wallet",
      "outputs": [
        {
          "internalType": "address payable",
          "name": "",
          "type": "address"
        }
      ],
      "stateMutability": "view",
      "type": "function"
    },
    {
      "inputs": [],
      "name": "rate",
      "outputs": [
        {
          "internalType": "uint256",
          "name": "",
          "type": "uint256"
        }
      ],
      "stateMutability": "view",
      "type": "function"
    },
    {
      "inputs": [],
      "name": "weiRaised",
      "outputs": [
        {
          "internalType": "uint256",
          "name": "",
          "type": "uint256"
        }
      ],
      "stateMutability": "view",
      "type": "function"
    },
    {
      "inputs": [
        {
          "internalType": "address",
          "name": "beneficiary",
          "type": "address"
        }
      ],
      "name": "buyTokens",
      "outputs": [],
      "stateMutability": "payable",
      "type": "function"
    }
  ],
  "bytecode": "0x608060405234801561001057600080fd5b50604051610d95380380610d958339818101604052606081101561003357600080fd5b8101908080519060200190929190805190602001909291908051906020019092919050505060016000806101000a81548160ff021916908315150217905550600083116100e8576040517f08c379a00000000000000000000000000000000000000000000000000000000081526004018080602001828103825260148152602001807f43726f776473616c653a2072617465206973203000000000000000000000000081525060200191505060405180910390fd5b600073ffffffffffffffffffffffffffffffffffffffff168273ffffffffffffffffffffffffffffffffffffffff16141561016e576040517f08c379a0000000000000000000000000000000000000000000000000000000008152600401808060200182810382526025815260200180610d706025913960400191505060405180910390fd5b600073ffffffffffffffffffffffffffffffffffffffff168173ffffffffffffffffffffffffffffffffffffffff1614156101f4576040517f08c379a0000000000000000000000000000000000000000000000000000000008152600401808060200182810382526024815260200180610d4c6024913960400191505060405180910390fd5b8260028190555081600160006101000a81548173ffffffffffffffffffffffffffffffffffffffff021916908373ffffffffffffffffffffffffffffffffffffffff16021790555080600060016101000a81548173ffffffffffffffffffffffffffffffffffffffff021916908373ffffffffffffffffffffffffffffffffffffffff160217905550505050610abd8061028f6000396000f3fe60806040526004361061004e5760003560e01c80632c4e722e1461006a5780634042b66f14610095578063521eb273146100c0578063ec8ac4d814610117578063fc0c546a1461015b57610065565b366100655761006361005e6101b2565b6101ba565b005b600080fd5b34801561007657600080fd5b5061007f610345565b6040518082815260200191505060405180910390f35b3480156100a157600080fd5b506100aa61034f565b6040518082815260200191505060405180910390f35b3480156100cc57600080fd5b506100d5610359565b604051808273ffffffffffffffffffffffffffffffffffffffff1673ffffffffffffffffffffffffffffffffffffffff16815260200191505060405180910390f35b6101596004803603602081101561012d57600080fd5b81019080803573ffffffffffffffffffffffffffffffffffffffff1690602001909291905050506101ba565b005b34801561016757600080fd5b50610170610383565b604051808273ffffffffffffffffffffffffffffffffffffffff1673ffffffffffffffffffffffffffffffffffffffff16815260200191505060405180910390f35b600033905090565b6000809054906101000a900460ff1661023b576040517f08c379a000000000000000000000000000000000000000000000000000000000815260040180806020018281038252601f8152602001807f5265656e7472616e637947756172643a207265656e7472616e742063616c6c0081525060200191505060405180910390fd5b60008060006101000a81548160ff021916908315150217905550600034905061026482826103ac565b600061026f826104ad565b9050610286826003546104cb90919063ffffffff16565b6003819055506102968382610553565b8273ffffffffffffffffffffffffffffffffffffffff166102b56101b2565b73ffffffffffffffffffffffffffffffffffffffff167f6faf93231a456e552dbc9961f58d9713ee4f2e69d15f1975b050ef0911053a7b8484604051808381526020018281526020019250505060405180910390a36103148383610561565b61031c610565565b61032683836105d0565b505060016000806101000a81548160ff02191690831515021790555050565b6000600254905090565b6000600354905090565b6000600160009054906101000a900473ffffffffffffffffffffffffffffffffffffffff16905090565b60008060019054906101000a900473ffffffffffffffffffffffffffffffffffffffff16905090565b600073ffffffffffffffffffffffffffffffffffffffff168273ffffffffffffffffffffffffffffffffffffffff161415610432576040517f08c379a000000000000000000000000000000000000000000000000000000000815260040180806020018281038252602a815260200180610a34602a913960400191505060405180910390fd5b60008114156104a9576040517f08c379a00000000000000000000000000000000000000000000000000000000081526004018080602001828103825260198152602001807f43726f776473616c653a20776569416d6f756e7420697320300000000000000081525060200191505060405180910390fd5b5050565b60006104c4600254836105d490919063ffffffff16565b9050919050565b600080828401905083811015610549576040517f08c379a000000000000000000000000000000000000000000000000000000000815260040180806020018281038252601b8152602001807f536166654d6174683a206164646974696f6e206f766572666c6f77000000000081525060200191505060405180910390fd5b8091505092915050565b61055d828261065a565b5050565b5050565b600160009054906101000a900473ffffffffffffffffffffffffffffffffffffffff1673ffffffffffffffffffffffffffffffffffffffff166108fc349081150290604051600060405180830381858888f193505050501580156105cd573d6000803e3d6000fd5b50565b5050565b6000808314156105e75760009050610654565b60008284029050828482816105f857fe5b041461064f576040517f08c379a0000000000000000000000000000000000000000000000000000000008152600401808060200182810382526021815260200180610a136021913960400191505060405180910390fd5b809150505b92915050565b6106a78282600060019054906101000a900473ffffffffffffffffffffffffffffffffffffffff1673ffffffffffffffffffffffffffffffffffffffff166106ab9092919063ffffffff16565b5050565b610777838473ffffffffffffffffffffffffffffffffffffffff1663a9059cbb905060e01b8484604051602401808373ffffffffffffffffffffffffffffffffffffffff1673ffffffffffffffffffffffffffffffffffffffff16815260200182815260200192505050604051602081830303815290604052907bffffffffffffffffffffffffffffffffffffffffffffffffffffffff19166020820180517bffffffffffffffffffffffffffffffffffffffffffffffffffffffff838183161783525050505061077c565b505050565b61079b8273ffffffffffffffffffffffffffffffffffffffff166109c7565b61080d576040517f08c379a000000000000000000000000000000000000000000000000000000000815260040180806020018281038252601f8152602001807f5361666545524332303a2063616c6c20746f206e6f6e2d636f6e74726163740081525060200191505060405180910390fd5b600060608373ffffffffffffffffffffffffffffffffffffffff16836040518082805190602001908083835b6020831061085c5780518252602082019150602081019050602083039250610839565b6001836020036101000a0380198251168184511680821785525050505050509050019150506000604051808303816000865af19150503d80600081146108be576040519150601f19603f3d011682016040523d82523d6000602084013e6108c3565b606091505b50915091508161093b576040517f08c379a00000000000000000000000000000000000000000000000000000000081526004018080602001828103825260208152602001807f5361666545524332303a206c6f772d6c6576656c2063616c6c206661696c656481525060200191505060405180910390fd5b6000815111156109c15780806020019051602081101561095a57600080fd5b81019080805190602001909291905050506109c0576040517f08c379a000000000000000000000000000000000000000000000000000000000815260040180806020018281038252602a815260200180610a5e602a913960400191505060405180910390fd5b5b50505050565b60008060007fc5d2460186f7233c927e7db2dcc703c0e500b653ca82273b7bfad8045d85a47060001b9050833f9150808214158015610a0957506000801b8214155b9250505091905056fe536166654d6174683a206d756c7469706c69636174696f6e206f766572666c6f7743726f776473616c653a2062656e656669636961727920697320746865207a65726f20616464726573735361666545524332303a204552433230206f7065726174696f6e20646964206e6f742073756363656564a264697066735822122036a12bcac211e5fadc7f3152dff2c3ca096a3e31420c800e976762291efa196264736f6c6343000601003343726f776473616c653a20746f6b656e20697320746865207a65726f206164647265737343726f776473616c653a2077616c6c657420697320746865207a65726f2061646472657373",
  "source": "pragma solidity ^0.6.0;\r\n\r\nimport \"@openzeppelin/contracts/GSN/Context.sol\";\r\nimport \"@openzeppelin/contracts/token/ERC20/IERC20.sol\";\r\nimport \"@openzeppelin/contracts/math/SafeMath.sol\";\r\nimport \"@openzeppelin/contracts/token/ERC20/SafeERC20.sol\";\r\nimport \"@openzeppelin/contracts/utils/ReentrancyGuard.sol\";\r\n\r\n/**\r\n * @title Crowdsale\r\n * @dev Crowdsale is a base contract for managing a token crowdsale,\r\n * allowing investors to purchase tokens with ether. This contract implements\r\n * such functionality in its most fundamental form and can be extended to provide additional\r\n * functionality and/or custom behavior.\r\n * The external interface represents the basic interface for purchasing tokens, and conforms\r\n * the base architecture for crowdsales. It is *not* intended to be modified / overridden.\r\n * The internal interface conforms the extensible and modifiable surface of crowdsales. Override\r\n * the methods to add functionality. Consider using 'super' where appropriate to concatenate\r\n * behavior.\r\n */\r\ncontract Crowdsale is Context, ReentrancyGuard {\r\n    using SafeMath for uint256;\r\n    using SafeERC20 for IERC20;\r\n\r\n    // The token being sold\r\n    IERC20 private _token;\r\n\r\n    // Address where funds are collected\r\n    address payable private _wallet;\r\n\r\n    // How many token units a buyer gets per wei.\r\n    // The rate is the conversion between wei and the smallest and indivisible token unit.\r\n    // So, if you are using a rate of 1 with a ERC20Detailed token with 3 decimals called TOK\r\n    // 1 wei will give you 1 unit, or 0.001 TOK.\r\n    uint256 private _rate;\r\n\r\n    // Amount of wei raised\r\n    uint256 private _weiRaised;\r\n\r\n    /**\r\n     * Event for token purchase logging\r\n     * @param purchaser who paid for the tokens\r\n     * @param beneficiary who got the tokens\r\n     * @param value weis paid for purchase\r\n     * @param amount amount of tokens purchased\r\n     */\r\n    event TokensPurchased(\r\n        address indexed purchaser,\r\n        address indexed beneficiary,\r\n        uint256 value,\r\n        uint256 amount\r\n    );\r\n\r\n    /**\r\n     * @param rate Number of token units a buyer gets per wei\r\n     * @dev The rate is the conversion between wei and the smallest and indivisible\r\n     * token unit. So, if you are using a rate of 1 with a ERC20Detailed token\r\n     * with 3 decimals called TOK, 1 wei will give you 1 unit, or 0.001 TOK.\r\n     * @param wallet Address where collected funds will be forwarded to\r\n     * @param token Address of the token being sold\r\n     */\r\n    constructor(\r\n        uint256 rate,\r\n        address payable wallet,\r\n        IERC20 token\r\n    ) public {\r\n        require(rate > 0, \"Crowdsale: rate is 0\");\r\n        require(wallet != address(0), \"Crowdsale: wallet is the zero address\");\r\n        require(\r\n            address(token) != address(0),\r\n            \"Crowdsale: token is the zero address\"\r\n        );\r\n\r\n        _rate = rate;\r\n        _wallet = wallet;\r\n        _token = token;\r\n    }\r\n\r\n    /**\r\n     * @dev fallback function ***DO NOT OVERRIDE***\r\n     * Note that other contracts will transfer funds with a base gas stipend\r\n     * of 2300, which is not enough to call buyTokens. Consider calling\r\n     * buyTokens directly when purchasing tokens from a contract.\r\n     */\r\n    receive() external payable {\r\n        buyTokens(_msgSender());\r\n    }\r\n\r\n    /**\r\n     * @return the token being sold.\r\n     */\r\n    function token() public view returns (IERC20) {\r\n        return _token;\r\n    }\r\n\r\n    /**\r\n     * @return the address where funds are collected.\r\n     */\r\n    function wallet() public view returns (address payable) {\r\n        return _wallet;\r\n    }\r\n\r\n    /**\r\n     * @return the number of token units a buyer gets per wei.\r\n     */\r\n    function rate() public view returns (uint256) {\r\n        return _rate;\r\n    }\r\n\r\n    /**\r\n     * @return the amount of wei raised.\r\n     */\r\n    function weiRaised() public view returns (uint256) {\r\n        return _weiRaised;\r\n    }\r\n\r\n    /**\r\n     * @dev low level token purchase ***DO NOT OVERRIDE***\r\n     * This function has a non-reentrancy guard, so it shouldn't be called by\r\n     * another `nonReentrant` function.\r\n     * @param beneficiary Recipient of the token purchase\r\n     */\r\n    function buyTokens(address beneficiary) public payable nonReentrant {\r\n        uint256 weiAmount = msg.value;\r\n        _preValidatePurchase(beneficiary, weiAmount);\r\n\r\n        // calculate token amount to be created\r\n        uint256 tokens = _getTokenAmount(weiAmount);\r\n\r\n        // update state\r\n        _weiRaised = _weiRaised.add(weiAmount);\r\n\r\n        _processPurchase(beneficiary, tokens);\r\n        emit TokensPurchased(_msgSender(), beneficiary, weiAmount, tokens);\r\n\r\n        _updatePurchasingState(beneficiary, weiAmount);\r\n\r\n        _forwardFunds();\r\n        _postValidatePurchase(beneficiary, weiAmount);\r\n    }\r\n\r\n    /**\r\n     * @dev Validation of an incoming purchase. Use require statements to revert state when conditions are not met.\r\n     * Use `super` in contracts that inherit from Crowdsale to extend their validations.\r\n     * Example from CappedCrowdsale.sol's _preValidatePurchase method:\r\n     *     super._preValidatePurchase(beneficiary, weiAmount);\r\n     *     require(weiRaised().add(weiAmount) <= cap);\r\n     * @param beneficiary Address performing the token purchase\r\n     * @param weiAmount Value in wei involved in the purchase\r\n     */\r\n    function _preValidatePurchase(address beneficiary, uint256 weiAmount)\r\n        internal\r\n        virtual\r\n        view\r\n    {\r\n        require(\r\n            beneficiary != address(0),\r\n            \"Crowdsale: beneficiary is the zero address\"\r\n        );\r\n        require(weiAmount != 0, \"Crowdsale: weiAmount is 0\");\r\n        this; // silence state mutability warning without generating bytecode - see https://github.com/ethereum/solidity/issues/2691\r\n    }\r\n\r\n    /**\r\n     * @dev Validation of an executed purchase. Observe state and use revert statements to undo rollback when valid\r\n     * conditions are not met.\r\n     * @param beneficiary Address performing the token purchase\r\n     * @param weiAmount Value in wei involved in the purchase\r\n     */\r\n    function _postValidatePurchase(address beneficiary, uint256 weiAmount)\r\n        internal\r\n        virtual\r\n        view\r\n    {\r\n        // solhint-disable-previous-line no-empty-blocks\r\n    }\r\n\r\n    /**\r\n     * @dev Source of tokens. Override this method to modify the way in which the crowdsale ultimately gets and sends\r\n     * its tokens.\r\n     * @param beneficiary Address performing the token purchase\r\n     * @param tokenAmount Number of tokens to be emitted\r\n     */\r\n    function _deliverTokens(address beneficiary, uint256 tokenAmount)\r\n        internal\r\n        virtual\r\n    {\r\n        _token.safeTransfer(beneficiary, tokenAmount);\r\n    }\r\n\r\n    /**\r\n     * @dev Executed when a purchase has been validated and is ready to be executed. Doesn't necessarily emit/send\r\n     * tokens.\r\n     * @param beneficiary Address receiving the tokens\r\n     * @param tokenAmount Number of tokens to be purchased\r\n     */\r\n    function _processPurchase(address beneficiary, uint256 tokenAmount)\r\n        internal\r\n        virtual\r\n    {\r\n        _deliverTokens(beneficiary, tokenAmount);\r\n    }\r\n\r\n    /**\r\n     * @dev Override for extensions that require an internal state to check for validity (current user contributions,\r\n     * etc.)\r\n     * @param beneficiary Address receiving the tokens\r\n     * @param weiAmount Value in wei involved in the purchase\r\n     */\r\n    function _updatePurchasingState(address beneficiary, uint256 weiAmount)\r\n        internal\r\n        virtual\r\n    {\r\n        // solhint-disable-previous-line no-empty-blocks\r\n    }\r\n\r\n    /**\r\n     * @dev Override to extend the way in which ether is converted to tokens.\r\n     * @param weiAmount Value in wei to be converted into tokens\r\n     * @return Number of tokens that can be purchased with the specified _weiAmount\r\n     */\r\n    function _getTokenAmount(uint256 weiAmount)\r\n        internal\r\n        view\r\n        returns (uint256)\r\n    {\r\n        return weiAmount.mul(_rate);\r\n    }\r\n\r\n    /**\r\n     * @dev Determines how ETH is stored/forwarded on purchases.\r\n     */\r\n    function _forwardFunds() internal {\r\n        _wallet.transfer(msg.value);\r\n    }\r\n}\r\n",
  "sourcePath": "C:\\Users\\Alex\\Documents\\projects\\inveth\\contracts\\Crowdsale.sol",
  "compiler": {
    "name": "solc",
    "version": "0.6.1+commit.e6f7d5a4.Emscripten.clang"
  },
  "schemaVersion": "3.2.3",
  "updatedAt": "2020-08-09T17:59:49.160Z",
  "devdoc": {
    "details": "Crowdsale is a base contract for managing a token crowdsale, allowing investors to purchase tokens with ether. This contract implements such functionality in its most fundamental form and can be extended to provide additional functionality and/or custom behavior. The external interface represents the basic interface for purchasing tokens, and conforms the base architecture for crowdsales. It is *not* intended to be modified / overridden. The internal interface conforms the extensible and modifiable surface of crowdsales. Override the methods to add functionality. Consider using 'super' where appropriate to concatenate behavior.",
    "methods": {
      "buyTokens(address)": {
        "details": "low level token purchase ***DO NOT OVERRIDE*** This function has a non-reentrancy guard, so it shouldn't be called by another `nonReentrant` function.",
        "params": {
          "beneficiary": "Recipient of the token purchase"
        }
      },
      "constructor": {
        "details": "The rate is the conversion between wei and the smallest and indivisible token unit. So, if you are using a rate of 1 with a ERC20Detailed token with 3 decimals called TOK, 1 wei will give you 1 unit, or 0.001 TOK.",
        "params": {
          "rate": "Number of token units a buyer gets per wei",
          "token": "Address of the token being sold",
          "wallet": "Address where collected funds will be forwarded to"
        }
      }
    },
    "title": "Crowdsale"
  },
  "userdoc": {
    "methods": {}
  }
}