{
  "contractName": "Project",
  "abi": [
    {
      "inputs": [
        {
          "internalType": "uint256",
          "name": "_minTokens",
          "type": "uint256"
        },
        {
          "internalType": "address",
          "name": "_token",
          "type": "address"
        }
      ],
      "stateMutability": "nonpayable",
      "type": "constructor"
    },
    {
      "inputs": [
        {
          "internalType": "address",
          "name": "",
          "type": "address"
        }
      ],
      "name": "balances",
      "outputs": [
        {
          "internalType": "uint256",
          "name": "",
          "type": "uint256"
        }
      ],
      "stateMutability": "view",
      "type": "function"
    },
    {
      "inputs": [
        {
          "internalType": "address",
          "name": "",
          "type": "address"
        }
      ],
      "name": "contributers",
      "outputs": [
        {
          "internalType": "bool",
          "name": "",
          "type": "bool"
        }
      ],
      "stateMutability": "view",
      "type": "function"
    },
    {
      "inputs": [],
      "name": "minimumTokens",
      "outputs": [
        {
          "internalType": "uint256",
          "name": "",
          "type": "uint256"
        }
      ],
      "stateMutability": "view",
      "type": "function"
    },
    {
      "inputs": [
        {
          "internalType": "uint256",
          "name": "_tokens",
          "type": "uint256"
        },
        {
          "internalType": "address",
          "name": "_projectFactory",
          "type": "address"
        }
      ],
      "name": "contribute",
      "outputs": [],
      "stateMutability": "nonpayable",
      "type": "function"
    }
  ],
  "bytecode": "0x608060405234801561001057600080fd5b506040516107073803806107078339818101604052604081101561003357600080fd5b81019080805190602001909291908051906020019092919050505081600281905550806000806101000a81548173ffffffffffffffffffffffffffffffffffffffff021916908373ffffffffffffffffffffffffffffffffffffffff1602179055505050610661806100a66000396000f3fe608060405234801561001057600080fd5b506004361061004c5760003560e01c806327e235e31461005157806334b66460146100a95780634056f8a81461010557806360b0b0f014610123575b600080fd5b6100936004803603602081101561006757600080fd5b81019080803573ffffffffffffffffffffffffffffffffffffffff169060200190929190505050610171565b6040518082815260200191505060405180910390f35b6100eb600480360360208110156100bf57600080fd5b81019080803573ffffffffffffffffffffffffffffffffffffffff169060200190929190505050610189565b604051808215151515815260200191505060405180910390f35b61010d6101a9565b6040518082815260200191505060405180910390f35b61016f6004803603604081101561013957600080fd5b8101908080359060200190929190803573ffffffffffffffffffffffffffffffffffffffff1690602001909291905050506101af565b005b60036020528060005260406000206000915090505481565b60046020528060005260406000206000915054906101000a900460ff1681565b60025481565b600254821015610227576040517f08c379a00000000000000000000000000000000000000000000000000000000081526004018080602001828103825260118152602001807f4e6f7420656e6f75676820746f6b656e7300000000000000000000000000000081525060200191505060405180910390fd5b6000809054906101000a900473ffffffffffffffffffffffffffffffffffffffff1673ffffffffffffffffffffffffffffffffffffffff166323b872dd3330856040518463ffffffff1660e01b8152600401808473ffffffffffffffffffffffffffffffffffffffff1673ffffffffffffffffffffffffffffffffffffffff1681526020018373ffffffffffffffffffffffffffffffffffffffff1673ffffffffffffffffffffffffffffffffffffffff1681526020018281526020019350505050602060405180830381600087803b15801561030357600080fd5b505af1158015610317573d6000803e3d6000fd5b505050506040513d602081101561032d57600080fd5b81019080805190602001909291905050506103b0576040517f08c379a000000000000000000000000000000000000000000000000000000000815260040180806020018281038252601d8152602001807f5472616e7366657272696e67206f6620746f6b656e73206661696c656400000081525060200191505060405180910390fd5b6001600460003373ffffffffffffffffffffffffffffffffffffffff1673ffffffffffffffffffffffffffffffffffffffff16815260200190815260200160002060006101000a81548160ff02191690831515021790555061045a82600360003373ffffffffffffffffffffffffffffffffffffffff1673ffffffffffffffffffffffffffffffffffffffff168152602001908152602001600020546105a390919063ffffffff16565b600360003373ffffffffffffffffffffffffffffffffffffffff1673ffffffffffffffffffffffffffffffffffffffff1681526020019081526020016000208190555080600160006101000a81548173ffffffffffffffffffffffffffffffffffffffff021916908373ffffffffffffffffffffffffffffffffffffffff160217905550600160009054906101000a900473ffffffffffffffffffffffffffffffffffffffff1673ffffffffffffffffffffffffffffffffffffffff1663ee788c5e33846040518363ffffffff1660e01b8152600401808373ffffffffffffffffffffffffffffffffffffffff1673ffffffffffffffffffffffffffffffffffffffff16815260200182815260200192505050600060405180830381600087803b15801561058757600080fd5b505af115801561059b573d6000803e3d6000fd5b505050505050565b600080828401905083811015610621576040517f08c379a000000000000000000000000000000000000000000000000000000000815260040180806020018281038252601b8152602001807f536166654d6174683a206164646974696f6e206f766572666c6f77000000000081525060200191505060405180910390fd5b809150509291505056fea2646970667358221220bcbb22f1d3f178fe8393d74c5f743c699b76d51403939731030b3473a21407e564736f6c63430006010033",
  "source": "pragma solidity ^0.6.0;\r\n\r\nimport \"./CustomToken.sol\";\r\nimport \"@openzeppelin/contracts/math/SafeMath.sol\";\r\nimport \"@openzeppelin/contracts/ownership/Ownable.sol\";\r\n\r\ncontract ProjectFactory is Ownable {\r\n    using SafeMath for uint256;\r\n    Project[] public deployedProjects;\r\n    mapping(address => uint256) public totalBalances;\r\n\r\n    function createProject(uint256 _minTokens, address _token)\r\n        public\r\n        onlyOwner\r\n    {\r\n        Project newProject = new Project(_minTokens, _token);\r\n        deployedProjects.push(newProject);\r\n    }\r\n\r\n    function getDeployedProjects() public view returns (Project[] memory) {\r\n        return deployedProjects;\r\n    }\r\n\r\n    function setTotalBalances(address _sender, uint256 _tokens) public {\r\n        totalBalances[_sender] = totalBalances[_sender].add(_tokens);\r\n    }\r\n}\r\n\r\ncontract Project {\r\n    using SafeMath for uint256;\r\n    CustomToken customToken;\r\n    ProjectFactory projectFactory;\r\n    uint256 public minimumTokens;\r\n    mapping(address => uint256) public balances;\r\n    mapping(address => bool) public contributers;\r\n\r\n    constructor(uint256 _minTokens, address _token) public {\r\n        minimumTokens = _minTokens;\r\n        customToken = CustomToken(_token);\r\n    }\r\n\r\n    function contribute(uint256 _tokens, address _projectFactory) public {\r\n        require(_tokens >= minimumTokens, \"Not enough tokens\");\r\n        require(\r\n            customToken.transferFrom(msg.sender, address(this), _tokens),\r\n            \"Transferring of tokens failed\"\r\n        );\r\n        contributers[msg.sender] = true;\r\n        balances[msg.sender] = balances[msg.sender].add(_tokens);\r\n        projectFactory = ProjectFactory(_projectFactory);\r\n        projectFactory.setTotalBalances(msg.sender, _tokens);\r\n    }\r\n}\r\n",
  "sourcePath": "C:/Users/Alex/Documents/projects/inveth/contracts/Project.sol",
  "compiler": {
    "name": "solc",
    "version": "0.6.1+commit.e6f7d5a4.Emscripten.clang"
  },
  "schemaVersion": "3.2.3",
  "updatedAt": "2020-08-11T02:47:38.560Z",
  "devdoc": {
    "methods": {}
  },
  "userdoc": {
    "methods": {}
  }
}