{
  "contractName": "ProjectFactory",
  "abi": [
    {
      "anonymous": false,
      "inputs": [
        {
          "indexed": true,
          "internalType": "address",
          "name": "previousOwner",
          "type": "address"
        },
        {
          "indexed": true,
          "internalType": "address",
          "name": "newOwner",
          "type": "address"
        }
      ],
      "name": "OwnershipTransferred",
      "type": "event"
    },
    {
      "inputs": [
        {
          "internalType": "uint256",
          "name": "",
          "type": "uint256"
        }
      ],
      "name": "deployedProjects",
      "outputs": [
        {
          "internalType": "contract Project",
          "name": "",
          "type": "address"
        }
      ],
      "stateMutability": "view",
      "type": "function",
      "constant": true
    },
    {
      "inputs": [],
      "name": "isOwner",
      "outputs": [
        {
          "internalType": "bool",
          "name": "",
          "type": "bool"
        }
      ],
      "stateMutability": "view",
      "type": "function",
      "constant": true
    },
    {
      "inputs": [],
      "name": "owner",
      "outputs": [
        {
          "internalType": "address",
          "name": "",
          "type": "address"
        }
      ],
      "stateMutability": "view",
      "type": "function",
      "constant": true
    },
    {
      "inputs": [],
      "name": "renounceOwnership",
      "outputs": [],
      "stateMutability": "nonpayable",
      "type": "function"
    },
    {
      "inputs": [
        {
          "internalType": "address",
          "name": "",
          "type": "address"
        }
      ],
      "name": "totalBalances",
      "outputs": [
        {
          "internalType": "uint256",
          "name": "",
          "type": "uint256"
        }
      ],
      "stateMutability": "view",
      "type": "function",
      "constant": true
    },
    {
      "inputs": [
        {
          "internalType": "address",
          "name": "newOwner",
          "type": "address"
        }
      ],
      "name": "transferOwnership",
      "outputs": [],
      "stateMutability": "nonpayable",
      "type": "function"
    },
    {
      "inputs": [
        {
          "internalType": "uint256",
          "name": "_minTokens",
          "type": "uint256"
        },
        {
          "internalType": "address",
          "name": "_token",
          "type": "address"
        }
      ],
      "name": "createProject",
      "outputs": [],
      "stateMutability": "nonpayable",
      "type": "function"
    },
    {
      "inputs": [],
      "name": "getDeployedProjects",
      "outputs": [
        {
          "internalType": "contract Project[]",
          "name": "",
          "type": "address[]"
        }
      ],
      "stateMutability": "view",
      "type": "function",
      "constant": true
    },
    {
      "inputs": [
        {
          "internalType": "address",
          "name": "_sender",
          "type": "address"
        },
        {
          "internalType": "uint256",
          "name": "_tokens",
          "type": "uint256"
        }
      ],
      "name": "setTotalBalances",
      "outputs": [],
      "stateMutability": "nonpayable",
      "type": "function"
    }
  ],
  "bytecode": "0x608060405260006100146100b760201b60201c565b9050806000806101000a81548173ffffffffffffffffffffffffffffffffffffffff021916908373ffffffffffffffffffffffffffffffffffffffff1602179055508073ffffffffffffffffffffffffffffffffffffffff16600073ffffffffffffffffffffffffffffffffffffffff167f8be0079c531659141344cd1fd0a4f28419497f9722a3daafe3b4186f6b6457e060405160405180910390a3506100bf565b600033905090565b611166806100ce6000396000f3fe608060405234801561001057600080fd5b50600436106100935760003560e01c80638f32d59b116100665780638f32d59b146101995780639ec6deaf146101bb578063aee9c87214610229578063ee788c5e14610281578063f2fde38b146102cf57610093565b80635a9184d614610098578063715018a6146100e65780637ac3886e146100f05780638da5cb5b1461014f575b600080fd5b6100e4600480360360408110156100ae57600080fd5b8101908080359060200190929190803573ffffffffffffffffffffffffffffffffffffffff169060200190929190505050610313565b005b6100ee610461565b005b6100f861059a565b6040518080602001828103825283818151815260200191508051906020019060200280838360005b8381101561013b578082015181840152602081019050610120565b505050509050019250505060405180910390f35b610157610628565b604051808273ffffffffffffffffffffffffffffffffffffffff1673ffffffffffffffffffffffffffffffffffffffff16815260200191505060405180910390f35b6101a1610651565b604051808215151515815260200191505060405180910390f35b6101e7600480360360208110156101d157600080fd5b81019080803590602001909291905050506106af565b604051808273ffffffffffffffffffffffffffffffffffffffff1673ffffffffffffffffffffffffffffffffffffffff16815260200191505060405180910390f35b61026b6004803603602081101561023f57600080fd5b81019080803573ffffffffffffffffffffffffffffffffffffffff1690602001909291905050506106eb565b6040518082815260200191505060405180910390f35b6102cd6004803603604081101561029757600080fd5b81019080803573ffffffffffffffffffffffffffffffffffffffff16906020019092919080359060200190929190505050610703565b005b610311600480360360208110156102e557600080fd5b81019080803573ffffffffffffffffffffffffffffffffffffffff16906020019092919050505061079c565b005b61031b610651565b61038d576040517f08c379a00000000000000000000000000000000000000000000000000000000081526004018080602001828103825260208152602001807f4f776e61626c653a2063616c6c6572206973206e6f7420746865206f776e657281525060200191505060405180910390fd5b6000828260405161039d906109f6565b808381526020018273ffffffffffffffffffffffffffffffffffffffff1673ffffffffffffffffffffffffffffffffffffffff16815260200192505050604051809103906000f0801580156103f6573d6000803e3d6000fd5b5090506001819080600181540180825580915050600190039060005260206000200160009091909190916101000a81548173ffffffffffffffffffffffffffffffffffffffff021916908373ffffffffffffffffffffffffffffffffffffffff160217905550505050565b610469610651565b6104db576040517f08c379a00000000000000000000000000000000000000000000000000000000081526004018080602001828103825260208152602001807f4f776e61626c653a2063616c6c6572206973206e6f7420746865206f776e657281525060200191505060405180910390fd5b600073ffffffffffffffffffffffffffffffffffffffff166000809054906101000a900473ffffffffffffffffffffffffffffffffffffffff1673ffffffffffffffffffffffffffffffffffffffff167f8be0079c531659141344cd1fd0a4f28419497f9722a3daafe3b4186f6b6457e060405160405180910390a360008060006101000a81548173ffffffffffffffffffffffffffffffffffffffff021916908373ffffffffffffffffffffffffffffffffffffffff160217905550565b6060600180548060200260200160405190810160405280929190818152602001828054801561061e57602002820191906000526020600020905b8160009054906101000a900473ffffffffffffffffffffffffffffffffffffffff1673ffffffffffffffffffffffffffffffffffffffff16815260200190600101908083116105d4575b5050505050905090565b60008060009054906101000a900473ffffffffffffffffffffffffffffffffffffffff16905090565b60008060009054906101000a900473ffffffffffffffffffffffffffffffffffffffff1673ffffffffffffffffffffffffffffffffffffffff16610693610822565b73ffffffffffffffffffffffffffffffffffffffff1614905090565b600181815481106106bc57fe5b906000526020600020016000915054906101000a900473ffffffffffffffffffffffffffffffffffffffff1681565b60026020528060005260406000206000915090505481565b61075581600260008573ffffffffffffffffffffffffffffffffffffffff1673ffffffffffffffffffffffffffffffffffffffff1681526020019081526020016000205461082a90919063ffffffff16565b600260008473ffffffffffffffffffffffffffffffffffffffff1673ffffffffffffffffffffffffffffffffffffffff168152602001908152602001600020819055505050565b6107a4610651565b610816576040517f08c379a00000000000000000000000000000000000000000000000000000000081526004018080602001828103825260208152602001807f4f776e61626c653a2063616c6c6572206973206e6f7420746865206f776e657281525060200191505060405180910390fd5b61081f816108b2565b50565b600033905090565b6000808284019050838110156108a8576040517f08c379a000000000000000000000000000000000000000000000000000000000815260040180806020018281038252601b8152602001807f536166654d6174683a206164646974696f6e206f766572666c6f77000000000081525060200191505060405180910390fd5b8091505092915050565b600073ffffffffffffffffffffffffffffffffffffffff168173ffffffffffffffffffffffffffffffffffffffff161415610938576040517f08c379a000000000000000000000000000000000000000000000000000000000815260040180806020018281038252602681526020018061110b6026913960400191505060405180910390fd5b8073ffffffffffffffffffffffffffffffffffffffff166000809054906101000a900473ffffffffffffffffffffffffffffffffffffffff1673ffffffffffffffffffffffffffffffffffffffff167f8be0079c531659141344cd1fd0a4f28419497f9722a3daafe3b4186f6b6457e060405160405180910390a3806000806101000a81548173ffffffffffffffffffffffffffffffffffffffff021916908373ffffffffffffffffffffffffffffffffffffffff16021790555050565b61070780610a048339019056fe608060405234801561001057600080fd5b506040516107073803806107078339818101604052604081101561003357600080fd5b81019080805190602001909291908051906020019092919050505081600281905550806000806101000a81548173ffffffffffffffffffffffffffffffffffffffff021916908373ffffffffffffffffffffffffffffffffffffffff1602179055505050610661806100a66000396000f3fe608060405234801561001057600080fd5b506004361061004c5760003560e01c806327e235e31461005157806334b66460146100a95780634056f8a81461010557806360b0b0f014610123575b600080fd5b6100936004803603602081101561006757600080fd5b81019080803573ffffffffffffffffffffffffffffffffffffffff169060200190929190505050610171565b6040518082815260200191505060405180910390f35b6100eb600480360360208110156100bf57600080fd5b81019080803573ffffffffffffffffffffffffffffffffffffffff169060200190929190505050610189565b604051808215151515815260200191505060405180910390f35b61010d6101a9565b6040518082815260200191505060405180910390f35b61016f6004803603604081101561013957600080fd5b8101908080359060200190929190803573ffffffffffffffffffffffffffffffffffffffff1690602001909291905050506101af565b005b60036020528060005260406000206000915090505481565b60046020528060005260406000206000915054906101000a900460ff1681565b60025481565b600254821015610227576040517f08c379a00000000000000000000000000000000000000000000000000000000081526004018080602001828103825260118152602001807f4e6f7420656e6f75676820746f6b656e7300000000000000000000000000000081525060200191505060405180910390fd5b6000809054906101000a900473ffffffffffffffffffffffffffffffffffffffff1673ffffffffffffffffffffffffffffffffffffffff166323b872dd3330856040518463ffffffff1660e01b8152600401808473ffffffffffffffffffffffffffffffffffffffff1673ffffffffffffffffffffffffffffffffffffffff1681526020018373ffffffffffffffffffffffffffffffffffffffff1673ffffffffffffffffffffffffffffffffffffffff1681526020018281526020019350505050602060405180830381600087803b15801561030357600080fd5b505af1158015610317573d6000803e3d6000fd5b505050506040513d602081101561032d57600080fd5b81019080805190602001909291905050506103b0576040517f08c379a000000000000000000000000000000000000000000000000000000000815260040180806020018281038252601d8152602001807f5472616e7366657272696e67206f6620746f6b656e73206661696c656400000081525060200191505060405180910390fd5b6001600460003373ffffffffffffffffffffffffffffffffffffffff1673ffffffffffffffffffffffffffffffffffffffff16815260200190815260200160002060006101000a81548160ff02191690831515021790555061045a82600360003373ffffffffffffffffffffffffffffffffffffffff1673ffffffffffffffffffffffffffffffffffffffff168152602001908152602001600020546105a390919063ffffffff16565b600360003373ffffffffffffffffffffffffffffffffffffffff1673ffffffffffffffffffffffffffffffffffffffff1681526020019081526020016000208190555080600160006101000a81548173ffffffffffffffffffffffffffffffffffffffff021916908373ffffffffffffffffffffffffffffffffffffffff160217905550600160009054906101000a900473ffffffffffffffffffffffffffffffffffffffff1673ffffffffffffffffffffffffffffffffffffffff1663ee788c5e33846040518363ffffffff1660e01b8152600401808373ffffffffffffffffffffffffffffffffffffffff1673ffffffffffffffffffffffffffffffffffffffff16815260200182815260200192505050600060405180830381600087803b15801561058757600080fd5b505af115801561059b573d6000803e3d6000fd5b505050505050565b600080828401905083811015610621576040517f08c379a000000000000000000000000000000000000000000000000000000000815260040180806020018281038252601b8152602001807f536166654d6174683a206164646974696f6e206f766572666c6f77000000000081525060200191505060405180910390fd5b809150509291505056fea2646970667358221220bcbb22f1d3f178fe8393d74c5f743c699b76d51403939731030b3473a21407e564736f6c634300060100334f776e61626c653a206e6577206f776e657220697320746865207a65726f2061646472657373a264697066735822122056148beff77f84c9dfd6aec764598d8f4081c8f934612a610b4c24517e1de25c64736f6c63430006010033",
  "source": "pragma solidity ^0.6.0;\r\n\r\nimport \"./CustomToken.sol\";\r\nimport \"@openzeppelin/contracts/math/SafeMath.sol\";\r\nimport \"@openzeppelin/contracts/ownership/Ownable.sol\";\r\n\r\ncontract ProjectFactory is Ownable {\r\n    using SafeMath for uint256;\r\n    Project[] public deployedProjects;\r\n    mapping(address => uint256) public totalBalances;\r\n\r\n    function createProject(uint256 _minTokens, address _token)\r\n        public\r\n        onlyOwner\r\n    {\r\n        Project newProject = new Project(_minTokens, _token);\r\n        deployedProjects.push(newProject);\r\n    }\r\n\r\n    function getDeployedProjects() public view returns (Project[] memory) {\r\n        return deployedProjects;\r\n    }\r\n\r\n    function setTotalBalances(address _sender, uint256 _tokens) public {\r\n        totalBalances[_sender] = totalBalances[_sender].add(_tokens);\r\n    }\r\n}\r\n\r\ncontract Project {\r\n    using SafeMath for uint256;\r\n    CustomToken customToken;\r\n    ProjectFactory projectFactory;\r\n    uint256 public minimumTokens;\r\n    mapping(address => uint256) public balances;\r\n    mapping(address => bool) public contributers;\r\n\r\n    constructor(uint256 _minTokens, address _token) public {\r\n        minimumTokens = _minTokens;\r\n        customToken = CustomToken(_token);\r\n    }\r\n\r\n    function contribute(uint256 _tokens, address _projectFactory) public {\r\n        require(_tokens >= minimumTokens, \"Not enough tokens\");\r\n        require(\r\n            customToken.transferFrom(msg.sender, address(this), _tokens),\r\n            \"Transferring of tokens failed\"\r\n        );\r\n        contributers[msg.sender] = true;\r\n        balances[msg.sender] = balances[msg.sender].add(_tokens);\r\n        projectFactory = ProjectFactory(_projectFactory);\r\n        projectFactory.setTotalBalances(msg.sender, _tokens);\r\n    }\r\n}\r\n",
  "sourcePath": "C:/Users/Alex/Documents/projects/inveth/contracts/Project.sol",
  "compiler": {
    "name": "solc",
    "version": "0.6.1+commit.e6f7d5a4.Emscripten.clang"
  },
  "schemaVersion": "3.2.3",
  "updatedAt": "2020-08-11T02:49:49.849Z",
  "networkType": "ethereum",
  "devdoc": {
    "methods": {
      "isOwner()": {
        "details": "Returns true if the caller is the current owner."
      },
      "owner()": {
        "details": "Returns the address of the current owner."
      },
      "renounceOwnership()": {
        "details": "Leaves the contract without owner. It will not be possible to call `onlyOwner` functions anymore. Can only be called by the current owner.     * NOTE: Renouncing ownership will leave the contract without an owner, thereby removing any functionality that is only available to the owner."
      },
      "transferOwnership(address)": {
        "details": "Transfers ownership of the contract to a new account (`newOwner`). Can only be called by the current owner."
      }
    }
  },
  "userdoc": {
    "methods": {}
  }
}