{
  "contractName": "Project",
  "abi": [
    {
      "inputs": [
        {
          "internalType": "uint256",
          "name": "_minTokens",
          "type": "uint256"
        },
        {
          "internalType": "address",
          "name": "_token",
          "type": "address"
        }
      ],
      "stateMutability": "nonpayable",
      "type": "constructor"
    },
    {
      "inputs": [
        {
          "internalType": "address",
          "name": "",
          "type": "address"
        }
      ],
      "name": "balances",
      "outputs": [
        {
          "internalType": "uint256",
          "name": "",
          "type": "uint256"
        }
      ],
      "stateMutability": "view",
      "type": "function"
    },
    {
      "inputs": [
        {
          "internalType": "address",
          "name": "",
          "type": "address"
        }
      ],
      "name": "contributers",
      "outputs": [
        {
          "internalType": "bool",
          "name": "",
          "type": "bool"
        }
      ],
      "stateMutability": "view",
      "type": "function"
    },
    {
      "inputs": [],
      "name": "minimumTokens",
      "outputs": [
        {
          "internalType": "uint256",
          "name": "",
          "type": "uint256"
        }
      ],
      "stateMutability": "view",
      "type": "function"
    },
    {
      "inputs": [
        {
          "internalType": "uint256",
          "name": "_tokens",
          "type": "uint256"
        }
      ],
      "name": "contribute",
      "outputs": [],
      "stateMutability": "nonpayable",
      "type": "function"
    }
  ],
  "bytecode": "0x608060405234801561001057600080fd5b506040516105e43803806105e48339818101604052604081101561003357600080fd5b81019080805190602001909291908051906020019092919050505081600181905550806000806101000a81548173ffffffffffffffffffffffffffffffffffffffff021916908373ffffffffffffffffffffffffffffffffffffffff160217905550505061053e806100a66000396000f3fe608060405234801561001057600080fd5b506004361061004c5760003560e01c806327e235e31461005157806334b66460146100a95780634056f8a814610105578063c1cbbca714610123575b600080fd5b6100936004803603602081101561006757600080fd5b81019080803573ffffffffffffffffffffffffffffffffffffffff169060200190929190505050610151565b6040518082815260200191505060405180910390f35b6100eb600480360360208110156100bf57600080fd5b81019080803573ffffffffffffffffffffffffffffffffffffffff169060200190929190505050610169565b604051808215151515815260200191505060405180910390f35b61010d610189565b6040518082815260200191505060405180910390f35b61014f6004803603602081101561013957600080fd5b810190808035906020019092919050505061018f565b005b60026020528060005260406000206000915090505481565b60036020528060005260406000206000915054906101000a900460ff1681565b60015481565b600154811015610207576040517f08c379a00000000000000000000000000000000000000000000000000000000081526004018080602001828103825260118152602001807f4e6f7420656e6f75676820746f6b656e7300000000000000000000000000000081525060200191505060405180910390fd5b6000809054906101000a900473ffffffffffffffffffffffffffffffffffffffff1673ffffffffffffffffffffffffffffffffffffffff166323b872dd3330846040518463ffffffff1660e01b8152600401808473ffffffffffffffffffffffffffffffffffffffff1673ffffffffffffffffffffffffffffffffffffffff1681526020018373ffffffffffffffffffffffffffffffffffffffff1673ffffffffffffffffffffffffffffffffffffffff1681526020018281526020019350505050602060405180830381600087803b1580156102e357600080fd5b505af11580156102f7573d6000803e3d6000fd5b505050506040513d602081101561030d57600080fd5b8101908080519060200190929190505050610390576040517f08c379a000000000000000000000000000000000000000000000000000000000815260040180806020018281038252601d8152602001807f5472616e7366657272696e67206f6620746f6b656e73206661696c656400000081525060200191505060405180910390fd5b6001600360003373ffffffffffffffffffffffffffffffffffffffff1673ffffffffffffffffffffffffffffffffffffffff16815260200190815260200160002060006101000a81548160ff02191690831515021790555061043a81600260003373ffffffffffffffffffffffffffffffffffffffff1673ffffffffffffffffffffffffffffffffffffffff1681526020019081526020016000205461048090919063ffffffff16565b600260003373ffffffffffffffffffffffffffffffffffffffff1673ffffffffffffffffffffffffffffffffffffffff1681526020019081526020016000208190555050565b6000808284019050838110156104fe576040517f08c379a000000000000000000000000000000000000000000000000000000000815260040180806020018281038252601b8152602001807f536166654d6174683a206164646974696f6e206f766572666c6f77000000000081525060200191505060405180910390fd5b809150509291505056fea2646970667358221220ec331b274e2068319309dde02ba61078ced2c48375f4cfdb04d96df57f42a03664736f6c63430006010033",
  "source": "pragma solidity ^0.6.0;\r\n\r\nimport \"./CustomToken.sol\";\r\nimport \"@openzeppelin/contracts/math/SafeMath.sol\";\r\nimport \"@openzeppelin/contracts/ownership/Ownable.sol\";\r\n\r\ncontract ProjectFactory is Ownable {\r\n    Project[] public deployedProjects;\r\n\r\n    function createProject(uint256 _minTokens, address _token)\r\n        public\r\n        onlyOwner\r\n    {\r\n        Project newProject = new Project(_minTokens, _token);\r\n        deployedProjects.push(newProject);\r\n    }\r\n\r\n    function getDeployedProjects() public view returns (Project[] memory) {\r\n        return deployedProjects;\r\n    }\r\n}\r\n\r\ncontract Project {\r\n    using SafeMath for uint256;\r\n    CustomToken customToken;\r\n    uint256 public minimumTokens;\r\n    mapping(address => uint256) public balances;\r\n    mapping(address => bool) public contributers;\r\n\r\n    constructor(uint256 _minTokens, address _token) public {\r\n        minimumTokens = _minTokens;\r\n        customToken = CustomToken(_token);\r\n    }\r\n\r\n    function contribute(uint256 _tokens) public {\r\n        require(_tokens >= minimumTokens, \"Not enough tokens\");\r\n        require(\r\n            customToken.transferFrom(msg.sender, address(this), _tokens),\r\n            \"Transferring of tokens failed\"\r\n        );\r\n        contributers[msg.sender] = true;\r\n        balances[msg.sender] = balances[msg.sender].add(_tokens);\r\n    }\r\n}\r\n",
  "sourcePath": "C:/Users/Alex/Documents/projects/inveth/contracts/Project.sol",
  "compiler": {
    "name": "solc",
    "version": "0.6.1+commit.e6f7d5a4.Emscripten.clang"
  },
  "schemaVersion": "3.2.3",
  "updatedAt": "2020-08-10T02:12:26.249Z",
  "devdoc": {
    "methods": {}
  },
  "userdoc": {
    "methods": {}
  }
}